:400000000080002011000000C9100000C910000080B500AF01F062F880B500AF264B12221A6001F075FC254B180002F0ADFF182001F0B0FA224B234A1A60234B8022D20595
:400040001A60224B224A1A60224B234A1A60234B9E22D2011A601F4B214A1A60214B802212061A60204B00221A60204B41221A601F4B40221A601F4B1900082001F0A0FB29
:40008000082001F0C3FB1C4B1C4A1A600E4B1C4A1A601C4B08221A60C0461A4B1B6808221340FAD1174B01221A60034B11221A60C046BD4680BDC04630001040001BB70010
:4000C00004010B40060000800C020B400403014000BF5D000000014041FF00800003014040FF008008010B4000010B405801014050010140A11A000008020B40FF7F00000F
:400100000500004010020B4080B586B000AF72B61723FB1800221A7025E01723FB181A7813005B009B185B00614A9B183B613B691A78597809020A43997809040A43DB786B
:400140001B06134318003B691A795B791B0213439BB2190000F084FF1723FB181A781723FB1801321A701723FB181B78052BD4D91723FB1800221A7036E01723FB181A7805
:4001800013009B009B185B004A4A9B18FB60FB681A78597809020A43997809040A43DB781B061343BB60FB681A79597909020A43997909040A43DB791B0613437B60BA1C6B
:4001C000FB68197A5B7A1B020B431380BB1C1A887968BB68180000F053FF1723FB181A781723FB1801321A701723FB181B78122BC3D9314BA02212011A80304B01221A70AA
:400200002F4B304A1A60304BEE2212021A602F4B992212041A602E4B992212041A602D4B992212041A602C4B8622D2031A602B4B992212041A602A4B992212041A60294A89
:40024000284B1B78DBB23C218B43DBB214210B43DBB21370244A244B1B78DBB216210B43DBB21370214B80221A60214B214A1A60214B224A1A60224B09221A60214B224AF9
:400280001A60224B224A1A60224B1C221A60224B224A1A60224B234A1A60234B234A1A60FFF7BAFE00F0FCFEC046BD4606B080BD443400006834000000600F4002600F4048
:4002C00000020240033000000003024000500F4010500F4020500F4028500F4040500F4070500F4001700F4000700F400000044008000440800D400008010440B60D000094
:400300000002044008020440040C000008030440B66D00000005044008050440806D1B0008060440B60D030008080440B66DDB0010B5064C2378002B07D1054B002B02D099
:40034000044800E000BF0123237010BDF00100200000000020340000084B10B5002B03D00749084800E000BF07480368002B00D110BD064B002BFBD09847F9E700000000CB
:40038000F401002020340000C80000200000000080B584B000AF78607B681B0907221A4013009B009B185B00FB607B680F221340FA68D318FB60FB681800BD4604B080BDDD
:4003C00080B584B000AF78607B681B0B07221A4013009B009B185B00FB607B681B0A0F221340FA68D318FB60FB681800BD4604B080BDC04680B584B000AF78607B681B0DC6
:4004000003221A4013009B009B185B00FB607B681B0C0F221340FA68D318FB60FB681800BD4604B080BDC04680B584B000AF78607B681B0F03221A4013009B009B185B0043
:40044000FB607B681B0E0F221340FA68D318FB60FB681800BD4604B080BDC04680B584B000AF78607B681B0D01221A4013009B009B185B00FB607B681B0C0F221340FA68F5
:40048000D318FB60FB681800BD4604B080BDC04680B584B000AF78607B681B0B03221340FA2292005343FB607B681B0A0F22134064225343FA68D318FB607B681B090F22E9
:4004C0001A4013009B009B185B001A00FB689B18FB607B680F221340FA68D318FB60FB681800BD4604B080BD80B582B000AF786039607B68052B00D9EFE07B689A00794B5A
:40050000D3181B689F46784A3B681B01D3180C331B68DBB2180001F0AFFB734A3B681B01D31808331B68DBB2180001F057FB6E4A3B681B01D31804331B68DBB2180001F03B
:4005400025FB694B3A681201D358DBB2180001F06BFBC2E0644A3B681B01D3180C331B68DBB2180001F0B0FB5F4A3B681B01D31808331B68DBB2180001F0CEFB5A4A3B6817
:400580001B01D31804331B68DBB2180001F0ECFB554B3A681201D358DBB2180001F00CFC9BE0514A3B681B01D3180C331B68DBB2180002F095F94C4A3B681B01D3180833BD
:4005C0001B68DBB2180002F0B3F9474A3B681B01D31804331B68DBB2180002F0D1F9424B3A681201D358DBB2180002F0F1F974E03D4A3B681B01D3180C331B68DBB2180005
:4006000002F00AFA384A3B681B01D31808331B68DBB2180002F026FA334A3B681B01D31804331B68DBB2180002F044FA2E4B3A681201D358DBB2180002F064FA4DE02A4A7E
:400640003B681B01D3180C331B68DBB2180002F081FA254A3B681B01D31808331B68DBB2180002F09FFA204A3B681B01D31804331B68DBB2180002F0BDFA1B4B3A681201BE
:40068000D358DBB2180002F0DDFA26E0164A3B681B01D3180C331B68DBB2180002F0FAFA114A3B681B01D31808331B68DBB2180002F016FB0C4A3B681B01D31804331B681F
:4006C000DBB2180002F034FB074B3A681201D358DBB2180002F052FBC046C046BD4602B080BDC0462C340000CC00002080B500AF01F03CFE02003B4B1A603A4B1B6818009D
:40070000FFF778FE0200384B1A60364B1B681800FFF756FE0200354B1A60324B1B681800FFF736FE0200324B1A60324B1B68002B41D12D4B1B680A21180002F071FC0300D4
:4007400019000020FFF7D0FE274B1B680A21180002F0ECFC0B0019000120FFF7C5FE234B1B680A21180002F05BFC030019000220FFF7BAFE1D4B1B680A21180002F0D6FC11
:400780000B0019000320FFF7AFFE194B1B680A21180002F045FC030019000420FFF7A4FE134B1B680A21180002F0C0FC0B0019000520FFF799FE0D4B1B68002B05D10E4B3D
:4007C0001B68002B01D100F019F8084B1B68002B02D0094B00221A6001F00CFEC046BD4680BDC046840200209C02002098020020880200200C0200201002002080B58CB0D5
:4008000000AF0023FB622BE0D84AFB6A1B01D3180C331B68DBB2180002F03CFAD34AFB6A1B01D31808331B68DBB2180002F058FACE4AFB6A1B01D31804331B68DBB218004E
:4008400002F076FAC94BFA6A1201D358DBB2180002F094FA502000F0FBFFFB6A0133FB62FB6A092BD0DD002002F014FA002002F037FA002002F05CFA002002F07FFA00232C
:40088000BB622BE0B94ABB6A1B01D3180C331B68DBB2180002F05EF9B44ABB6A1B01D31808331B68DBB2180002F07CF9AF4ABB6A1B01D31804331B68DBB2180002F09AF934
:4008C000AA4BBA6A1201D358DBB2180002F0BAF9502000F0BDFFBB6A0133BB62BB6A092BD0DD002002F036F9002002F05BF9002002F080F9002002F0A5F900237B622BE0D2
:400900009A4A7B6A1B01D3180C331B68DBB2180002F082F8954A7B6A1B01D31808331B68DBB2180002F09EF8904A7B6A1B01D31804331B68DBB2180002F0BCF88B4B7A6AD9
:400940001201D358DBB2180002F0DCF8502000F07FFF7B6A01337B627B6A092BD0DD002002F05AF8002002F07DF8002002F0A2F8002002F0C7F800233B622BE07B4A3B6A97
:400980001B01D3180C331B68DBB2180001F0A8FF764A3B6A1B01D31808331B68DBB2180001F0C6FF714A3B6A1B01D31804331B68DBB2180001F0E4FF6C4B3A6A1201D35879
:4009C000DBB2180002F004F8502000F041FF3B6A01333B623B6A092BD0DD002001F080FF002001F0A5FF002001F0CAFF002001F0EFFF0023FB612BE05C4AFB691B01D3180F
:400A00000C331B68DBB2180001F05EF9574AFB691B01D31808331B68DBB2180001F07CF9524AFB691B01D31804331B68DBB2180001F09AF94D4BFA691201D358DBB218006A
:400A400001F0BAF9502000F003FFFB690133FB61FB69092BD0DD002001F036F9002001F05BF9002001F080F9002001F0A5F90023BB612BE03D4ABB691B01D3180C331B689B
:400A8000DBB2180001F0F8F8384ABB691B01D31808331B68DBB2180001F0A0F8334ABB691B01D31804331B68DBB2180001F06EF82E4BBA691201D358DBB2180001F0B4F89D
:400AC000502000F0C5FEBB690133BB61BB69092BD0DD002001F0D0F8002001F07FF8002001F054F8002001F09FF800237B612BE01E4A7B691B01D3180C331B68DBB2180030
:400B000001F0E2F8194A7B691B01D31808331B68DBB2180001F000F9144A7B691B01D31804331B68DBB2180001F01EF90F4B7A691201D358DBB2180001F03EF9502000F0F7
:400B400087FE7B6901337B617B69092BD0DD002001F0BAF8002001F0DFF8002001F004F9002001F029F900233B612DE0CC0000209A4A3B691B01D3180C331B68DBB218009D
:400B800001F0AEFE954A3B691B01D31808331B68DBB2180001F0CCFE904A3B691B01D31804331B68DBB2180001F0EAFE8B4B3A691201D358DBB2180001F00AFF502000F07D
:400BC00047FE3B6901333B613B69092BD0DD002001F086FE002001F0ABFE002001F0D0FE002001F0F5FE0023FB602BE07B4AFB681B01D3180C331B68DBB2180001F00CFF6A
:400C0000764AFB681B01D31808331B68DBB2180001F028FF714AFB681B01D31804331B68DBB2180001F046FF6C4BFA681201D358DBB2180001F066FF502000F009FEFB6839
:400C40000133FB60FB68092BD0DD002001F0E4FE002001F007FF002001F02CFF002001F051FF0023BB602BE05C4ABB681B01D3180C331B68DBB2180001F06CFF574ABB685A
:400C80001B01D31808331B68DBB2180001F08AFF524ABB681B01D31804331B68DBB2180001F0A8FF4D4BBA681201D358DBB2180001F0C8FF502000F0CBFDBB680133BB60A4
:400CC000BB68092BD0DD002001F044FF002001F069FF002001F08EFF002001F0B3FF00237B602BE03D4A7B681B01D3180C331B68DBB2180001F0CEFF384A7B681B01D318B7
:400D000008331B68DBB2180001F0EAFF334A7B681B01D31804331B68DBB2180002F008F82E4B7A681201D358DBB2180002F026F8502000F08DFD7B6801337B607B68092B7D
:400D4000D0DD002001F0A6FF002001F0C9FF002001F0EEFF002002F011F800233B6023E03B6819000020FFF7BFFB3B6819000120FFF7BAFB3B6819000220FFF7B5FB3B6822
:400D800019000320FFF7B0FB3B6819000420FFF7ABFB3B6819000520FFF7A6FB502000F057FD3B6801333B603B68092BD8DD01F0DDFA02000A4B1A60094B1B681800FFF732
:400DC000FFFA0200074B1A60074B01221A60FFF78DFCC046BD460CB080BDC046CC00002084020020980200201002002080B500AF72B6C04601F0EAFF031EFBD102F080F8F5
:400E000003001A001B4B1A60C04601F0DFFF031EFBD002F075F803001A00174B1A60154B1A68154B1B68D31A144A93421EDC144B1B68002B1AD0134B1B685A1C114B1A6099
:400E4000104B1B680A21180002F0EAF8030019000020FFF749FB0B4B1B680A21180002F065F90B0019000120FFF73EFBC046BD4680BDC046140200201802002080C3C9015E
:400E80001C0200209802002080B500AF0D4BDB6BDBB2180000F0F0FE0A4B9B6BDBB2180000F09CFE074B5B6BDBB2180000F06EFE044B1B6BDBB2180000F0B6FEC046BD466B
:400EC00080BDC046CC00002080B500AF002002F035F801F0C7F9574A574B1100180001F00BFA62B6554B1900002000F0B9FD01F0B5FFC04601F06AFF031EFBD102F000F81A
:400F000003001A004E4B1A60C04601F05FFF031EFBD001F0F5FF03001A004A4B1A60484B1A68484B1B68D31A474A93426EDC474B1B68DA43454B1A60444B1B68002B65D0B9
:400F400001F036FA0200424B1A60414B1B681800FFF76AFA02003F4B1A603D4B1B681800FFF77CFA02003C4B1A60394B1B681800FFF78EFA0200394B1A60364B1B680A2162
:400F8000180002F04DF8030019000020FFF7ACFA304B1B680A21180002F0C8F80B0019000120FFF7A1FA2C4B1B680A21180002F037F8030019000220FFF796FA264B1B682B
:400FC0000A21180002F0B2F80B0019000320FFF78BFA224B1B686421180002F0A7F80B000A21180002F01CF8030019000420FFF77BFA1A4B1B680A21180002F097F80B007C
:4010000019000520FFF770FA01F0F4F90C4B1A680C4B1B68D31A0C4A934200DC69E70B4B1B68002B02D1FFF7E1FE62E7FFF72CFF5FE7C0462220041245591200ED060000E0
:40104000140200201802002080C3C9010C0200209402002090020020800200208C02002080B582B000AF786039603A687B680021180002F0CCF9C046BD4602B080BDC04613
:4010800080B584B000AFF860B9607A607A68B968FB68180002F0B2F9C046BD4604B080BD80B500AF054B03221A60054B03221A60044B00221A60C046BD4680BD3000304025
:4010C00030003140000E3F4080B500AF02F06AF903001B680C2B00D1FEE7FEE780B586B000AF224B7B61224B3B61204B7B6135E03B691B68FB603B695B68BB603B699B68BE
:401100003B6000237B600CE0FB681A68BB681A60BB680433BB60FB680433FB607B6804337B607A683B689A42EED13B69DB683B6000237B6008E0BB6800221A60BB680433A8
:40114000BB607B6804337B607A683B689A42F2D13B6910333B617B69013B7B617B69002BC6D102F025F9FFF7AFFEFEE701000000683E000080B582B000AF154B144A126889
:4011800001218A431A6000237B600FE07B68032B04D8104B7A689200D35800E00E4B0F4A796889008B507B6801337B607B682F2BECD9FEF7A9FF0A4B00221A60044B044AFC
:4011C000126801210A431A60C046BD4602B080BD0000104000000000C910000000000020C000002090B587B000AF0023BB6000F09FFB031E00D184E0FC1D01F0CEFE030049
:401200002370424B414A126801210A431A6003233B6100237B6111E03D4B1B681A003F2313403C497A698A181278934203D17B6903333B6105E07B6901337B617B692D2B0C
:40124000EAD9354B1B681F22134007D1324B324A12681F218A430C210A431A602F4B1B682F4A1340FB603B692E4A53438022D20194466344DB0B013B5B055B0DFA6813435A
:40128000FB60FB68A02252031343FB603B69192B05D8FB68FF2292051343FB6016E03B69214A944663441B78DBB219003B691A3B1E4AD35CCB18BB60BB68FF2B00D9FF2382
:4012C000BB60BB689B05FA681343FB60134BFA681A60174B1B683B60302001F065FE154B144A12688021C9050A431A60142000F0AFFA0F4B3A681A60FB1D1B78180001F03A
:4013000050FEC046BD4607B090BDC04650000C402CFF0B40D43D000034FF0B400800224000F800C040420F004DF3FF0F043E0000300010400000224080B500AF044B044A05
:40134000126804490A401A60C046BD4680BDC04600002240FFFFFFBF80B500AF054B1A688023DB05134001D0012300E000231800BD4680BD0000224080B584B000AF3C4B9B
:401380001B78DBB21A003F231340042B01D9012300E000237B600323BB600023FB6011E0344B1B681A003F2313403349FA688A181278934203D1FB680333BB6005E0FB6803
:4013C0000133FB60FB682D2BEAD92C4B2B4A126801218A431A602A4B1A682A4B1A607B68002B13D0284B1A68284B1A60244A254B1B681F218B4326490978C9B20B431360BD
:40140000214B244A1278D2B21A6007E01C4A1D4B1B681F218B4308210B431360BB68302B0CD11D4B7A68002A03D01C4A1278D2B202E01B4A1278D2B21A600EE0BB68182BE1
:401440000BD1154B7A68002A03D0164A1278D2B202E0154A1278D2B21A60144B134A126802210A431A60C046BD4604B080BDC04600F3FF0F2CFF0B40D43D000050000C40D6
:4014800034FF0B403C02002020FF0B4040020020C0F1FF0FC1F1FF0F28FF0B40C3F1FF0F3FF3FF0FC2F1FF0F3EF3FF0F24002C4080B584B000AF254B1B78DBB21A003F23DD
:4014C0001340042B01D9012300E000237B600323BB600023FB6011E01D4B1B681A003F2313401C49FA688A181278934203D1FB680333BB6005E0FB680133FB60FB682D2B42
:40150000EAD9154B144A126802218A431A60134A124B1B681F218B431900114B1B681F2003400B4313607B68002B03D00D4A0E4B1B6813600D4BBA680D498C466244127867
:40154000D2B21A60C046BD4604B080BD00F3FF0F2CFF0B40D43D000024002C4034FF0B403C02002020FF0B404002002028FF0B404DF3FF0F80B500AF054B1B6802221340C5
:4015800001D0012300E000231800BD4680BDC04624002C4090B587B000AF786000233B610023FB600B23FC1801F0F7FC03002370FFF7D2FE031E03D001233B61FFF7BCFE1F
:4015C000FFF7D8FF031E09D07B68182B02D07B68302B03D10123FB60FFF76AFF7B68022B00D8AFE07B68302B00D9ABE0614B1B78DBB21A007B689A420AD35F4A1723FB18AB
:4016000012781A705D4A1623FB1812781A703FE05B4B1B78DBB21A007B689A420AD3594A1723FB1812781A70574A1623FB1812781A702DE0554B1B78DBB21A007B689A4249
:401640000AD3534A1723FB1812781A70514A1623FB1812781A701BE04F4B1B78DBB21A007B689A420AD34D4A1723FB1812781A704B4A1623FB1812781A7009E0494A172386
:40168000FB1812781A70484A1623FB1812781A707B68DA1E0A23FB1844498A5C1A700A23FB181B782F2B0DD97B682A2B0AD9404B19221A60052001F067FC1523FB1819228C
:4016C0001A7007E03A4B1B68DAB21523FB183F210A401A700A23FA181523FB1812781B789A4208D2324B7A68033A30498A5C1A60052001F049FC2F4B7A682B498C466244F1
:401700001278D2B21A602C4B1722BA1812781A602A4B1622BA1812781A60052000F0BEF80A23FA181523FB1812781B789A420CD91F4B7A68033A1D498A5C1A60052001F080
:4017400023FC02E0002000F077F83B69012B01D1FFF748FDFB68012B01D1FFF70DFE0B23FB181B78180001F01CFCC046BD4607B090BDC04640F3FF0F41F3FF0F42F3FF0FDC
:4017800043F3FF0F44F3FF0F45F3FF0F46F3FF0F47F3FF0F48F3FF0F49F3FF0F4AF3FF0F4BF3FF0F4CF3FF0F4DF3FF0FD43D00002CFF0B4028FF0B401CFF0B4020FF0B403D
:4017C00080B584B000AF02003960FB1D1A7080239B05FB60FB1D1B781F2B02D9002000F02BF8FB1D1B7810339B00FA68D3181B68BB60FB1D1B7810339B00FA68D3183A6807
:401800001A60BB681800BD4604B080BD80B582B000AF0200FB1D1A70064BFA1D12781F210A40012191400A001A60C046BD4602B080BDC04600E100E080B582B000AF02007B
:40184000FB1D1A7001BEC046BD4602B080BDC04680B582B000AF786009E00D4B1B68180001F092FB7B680B4A944663447B607A6880231B029A42F0D8074B1B687A6853439A
:40188000180001F081FBC046BD4602B080BDC046780100200080FFFF7001002080B582B000AF0200BB1D1A80BB1D1B88044A12785343180001F068FBC046BD4602B080BD26
:4018C0007401002080B500AF0F4B0F4A126801218A431A600C4B0C4A126802218A431A600A4B0A4A126830218A4310210A431A60064B064A126807218A4301210A431A6016
:40190000C046BD4680BDC04600002240000F224080B500AFFFF7D6FF044B044A1268802109060A431A60C046BD4680BD0000224080B500AF044B1B68002B01DA012300E0E3
:4019400000231800BD4680BD0000224090B583B000AFFC1D01F021FB03002370074B074A1268C02109020A431A60FB1D1B78180001F017FBC046BD4603B090BD00010B40BC
:4019800080B500AF054B1A68C0231B02134001D0012300E000231800BD4680BD00010B4090B583B000AFFC1D01F0F7FA030023700D4B0D4A12680D490A408021C9010A4349
:4019C0001A60094B084A126808490A40802109020A431A60FB1D1B78180001F0E2FAC046BD4603B090BDC04600010B40FF3FFFFF90B585B000AF78600B23FC1801F0CDFA1D
:401A000003002370FFF7BCFF031E04D00123FB60FFF7C6FF01E00023FB607B680D4A13407B600D4B0C4A12680C4911407A680A431A60094B1B68FB68012B01D1FFF786FF3F
:401A40000B23FB181B78180001F0ABFAC046BD4605B090BD0404040010020B40FBFBFBFF80B584B000AF786039600023FB607B68022B0AD8094B7A689200D358FB60074BE7
:401A80007A6892003968D15002E00020FFF7D4FEFB681800BD4604B080BDC0465002002080B500AF344B1B68042213401FD0334B1B680422134017D0314B1B680422134018
:401AC000DA432E4B1B681A402C4B1A602C4B1B68042293431A002A4B1A602A4B1B68002B02D0284B1B6898470420FFF781FF224B1A688023DB00134022D0204B1A688023DD
:401B0000DB00134017D01E4B1A688023DB001340DA431A4B1B681A40184B1A60184B1B68194A1A40164B1A60164B5B68002B02D0144B5B6898478023DB001800FFF758FF15
:401B40000D4B1A688023DB02134011D00B4B1A688023DB02134006D00A4B9B68002B02D0084B9B6898478023DB021800FFF740FFC046BD4680BDC04610020B4084010020B1
:401B80004C02002050020020FFFBFFFF80B584B000AF0200FB1D1A700F4B1B68DAB20F23FB1802218A431A70FB1D1B78DB18DBB202221340D9B20F23FB180F22BA1812786A
:401BC0000A431A70044B0F22BA1812781A60C046BD4604B080BDC0460006044080B584B000AF0200FB1D1A700E4B1B68DAB20F23FB1801218A431A70FB1D1B78012213406B
:401C0000D9B20F23FB180F22BA1812780A431A70044B0F22BA1812781A60C046BD4604B080BDC0460006044080B584B000AF0200FB1D1A700F4B1B68DAB20F23FB18042141
:401C40008A431A70FB1D1B789B00DBB204221340D9B20F23FB180F22BA1812780A431A70044B0F22BA1812781A60C046BD4604B080BDC0460006044080B584B000AF0200D3
:401C8000FB1D1A700F4B1B68DAB20F23FB1808218A431A70FB1D1B78DB00DBB208221340D9B20F23FB180F22BA1812780A431A70044B0F22BA1812781A60C046BD4604B07D
:401CC00080BDC0460006044080B584B000AF0200FB1D1A700F4B1B68DAB20F23FB1810218A431A70FB1D1B781B01DBB210221340D9B20F23FB180F22BA1812780A431A7058
:401D0000044B0F22BA1812781A60C046BD4604B080BDC0460003044080B584B000AF0200FB1D1A700F4B1B68DAB20F23FB1820218A431A70FB1D1B785B01DBB220221340DB
:401D4000D9B20F23FB180F22BA1812780A431A70044B0F22BA1812781A60C046BD4604B080BDC0460006044080B584B000AF0200FB1D1A700F4B1B68DAB20F23FB18042100
:401D80008A431A70FB1D1B789B00DBB204221340D9B20F23FB180F22BA1812780A431A70044B0F22BA1812781A60C046BD4604B080BDC0460000044080B584B000AF020098
:401DC000FB1D1A700F4B1B68DAB20F23FB1808218A431A70FB1D1B78DB00DBB208221340D9B20F23FB180F22BA1812780A431A70044B0F22BA1812781A60C046BD4604B03C
:401E000080BDC0460000044080B582B000AF786039607B683A681A403B689A4201D1012300E000231800BD4602B080BD80B584B000AF78607B680322134006D17B686421A9
:401E4000180001F073F90B1E07D17A68C8235900100001F06BF90B1E02D10123FB6001E00023FB60FB681800BD4604B080BDC04680B584B000AF78607B681B0907221A4098
:401E800013009B009B185B00FB607B680F221340FA68D318FB60FB681800BD4604B080BD80B584B000AF78607B681B0B07221A4013009B009B185B00FB607B681B0A0F22C1
:401EC0001340FA68D318FB60FB681800BD4604B080BDC04680B584B000AF78607B681B0D03221A4013009B009B185B00FB607B681B0C0F221340FA68D318FB60FB68180030
:401F0000BD4604B080BDC04680B582B000AF78608023DA037B6811001800FFF775FF03001800BD4602B080BD80B584B000AF78607B681B0F03221A4013009B009B185B007E
:401F4000FB607B681B0E0F221340FA68D318FB60FB681800BD4604B080BDC04680B584B000AF78607B681B0D01221A4013009B009B185B00FB607B681B0C0F221340FA68DA
:401F8000D318FB60FB681800BD4604B080BDC04680B584B000AF78607B681B0B03221340FA2292005343FB607B681B0A0F22134064225343FA68D318FB607B681B090F22CE
:401FC0001A4013009B009B185B001A00FB689B18FB607B680F221340FA68D318FB60FB681800BD4604B080BD80B582B000AF78607A6880231B04134001D0012300E00023E5
:402000001800BD4602B080BD80B586B000AFF860B9607A603B60FB68DB057B61BB689B057A6913437B617B680A21180000F0F8FF03001B057A6913437B617B680A21180034
:4020400001F074F80B001B047A6913437B613B680A21180000F0E4FF03001B037A6913437B613B680A21180001F060F80B001B027A6913437B613B6A0A21180000F0D0FFC2
:4020800003001B017A6913437B613B6A0A21180001F04CF80B001A007B6913437B617B691800BD4606B080BD80B586B000AFF860B9607A607B687B61FB680A21180000F0E8
:4020C000AFFF03001B053B61FB680A21180001F02DF80B001B043A6913433B61BB680A21180000F09DFF03001B073A6913433B61BB680A21180001F019F80B001B063A6915
:4021000013433B617A68FA239900100000F088FF03001B033A6913433B617A69FA239900100001F003F80B007B617B696421180000F076FF03001B023A6913433B617B69DD
:402140006421180000F0F2FF0B007B617B690A21180000F065FF03001B013A6913433B617B690A21180000F0E1FF0B001A003B6913433B613B691800BD4606B080BDC04661
:4021800090B587B000AFF860B9607A60BB68022B05D8BB680C33BB607B68013B7B60BB6801331A2253430A21180000F039FF03001A00FB68D2187B68D2187B689B08D418C8
:4021C0007B686421180000F02BFF03001A0013005B009B185B00E4187A68C8235900100000F01EFF0300E3180721180000F09EFF0B007B617B69002B01D107237B617B69F0
:402200001800BD4607B090BD80B584B000AF786039607B685A1E0A4B5200D35AFB603B681800FFF703FE031E05D07B68022B02D9FB680133FB60FB681800BD4604B080BD78
:402240001C3E000080B582B000AF7860044A7B6811001800FFF704FCC046BD4602B080BDF523000080B500AF054B1B78002B01D100F008F80020FFF7E5FFC046BD4680BDC2
:40228000A002002080B584B002AF154B01221A70144B00221A60144B0022DA60134B00221A70134B00221A60124B1A0001210120FFF7FAFE03007B600023009300230022FA
:4022C00000210020FFF7A0FE03003B607A683B681100180000F010F8C046BD4602B080BDA002002074020020A4020020B8020020B4020020B207000090B587B000AF786043
:4023000039603B681800FFF70FFE03007B613B681800FFF723FE03003B613B681800FFF737FE0300FB607A683B681100180000F08DF803000C000B4A136054600A4B3A680D
:402340005A60094B7A681A60FA6839697B691800FFF716FF0200044B9A60C046BD4607B090BDC046C0020020A402002090B583B002AF0C4B1B68190000231A000A4B5C6870
:402380001B685B1854410949002200921A002300080000F03BF9054B1B681800BD4601B090BDC04674020020C0020020A402002090B583B002AF0C4B1B68190000231A009A
:4023C0000A4B5C681B685B1854410949002200921A002300080000F019F9054B5B681800BD4601B090BDC04674020020C0020020A402002090B500AF104B1A68104B1B68CD
:40240000D2180E4B1A600D4B1A680E4B1B689A4210D30D4B5C681B68012100225B185441094A13605460054B1A68064B1B68D21A024B1A60C046BD4690BDC04678020020B6
:402440006C02002070020020C0020020F0B593B000AF7862396200230024BB63FC637B6A1800FFF795FD03007B63634B7B6419E07B6C1800FFF7DAFC031E08D0BB6BFC6B4D
:402480005E4900225B185441BB63FC6307E0BB6BFC6B5B4900225B185441BB63FC637B6C01337B647A6C7B6B9A42E1D37B6A1800FFF754FD03003B637A6B3B6B1100180020
:4024C000FFF7A2FE03003B643B6CBB610023FB614C4A0023B869F96900F04EFE03000C0019002200BB6BFC6B5B185441BB63FC637B6A1800FFF718FD03003B6100237B61E8
:40250000404A00233869796900F036FE03000C00190022003C4B012464425B185441B96BFA6B5B185441BB63FC633B6A1800FFF7D1FC03003B643B6A1800FFF755FD031E4D
:4025400017D03B6A1800FFF7DFFC0300FB62FB6A002B06D03B6C0B2B03D83B6C0C333B6407E0FB6A002B04D13B6C0C2B01D100233B643B6CBB600023FB60E12212010023AC
:40258000B868F96800F0F8FD03000C0019002200BB6BFC6B5B185441BB63FC633B6A1800FFF77EFC03003B6000237B603C2200233868796800F0E0FD03000C001900220077
:4025C000BB6BFC6B5B185441BB63FC633B6A1800FFF74EFC03001D0000231E00BB6BFC6B5B197441BB63FC63BB6BFC6B18002100BD4613B0F0BDC046B20700000085E201D8
:402600008033E1018051010080AEFEFFF0B5A1B002AF7865BA64FB6400233B679C4BBB669C4B7B6619E07B6EBB600023FB60BB6CFC6CB968FA685B1A9441BB64FC64BB6EF3
:402640000133BB66BB6E1800FFF7F0FB031E02D0914B7B6601E08F4B7B667B6E1D0000231E00FB6CB34205D3FB6CB342DBD1BB6CAB42D8D20123FB66BA6EFB6E1100180017
:4026800000F010F90200854B53437B6618E07B6E3B6000237B60BB6CFC6C39687A685B1A9441BB64FC64FB6E0133FB66BA6EFB6E1100180000F0F6F80200784B53437B66B1
:4026C0007B6E3B6400237B64FB6C7A6C934207D3FB6C7A6C9342DAD1BB6C3A6C9342D6D2B86CF96C6D4A002300F026FD03000C003B663A6E694B53437B667B6EBB6300231A
:40270000FB63FB6CFA6B93420CD3FB6CFA6B934203D1BB6CBA6B934204D37B6E3B6200237B6203E0002300243B627C62BB6CFC6C396A7A6A5B1A9441BB64FC643B6E013367
:402740003B66B86CF96CE1221201002300F0F4FC03000C007B677B6FE122120153437B669023FB181B68002B1DD0FB6C002B06D1FB6C002B0ED1BB6C494A93420AD90123DD
:402780003B677B6F0C2B02D97B6F0C3B00E07B6F7B6708E000233B677B6F002B01D07B6F00E00C237B677B6E3B6300237B63FB6C7A6B93420CD3FB6C7A6B934203D1BB6C8C
:4027C0003A6B934204D37B6EBB610023FB6103E000230024BB61FC61BB6CFC6CB969FA695B1A9441BB64FC64B86CF96C3C22002300F0A2FC03000C00FB65FA6D13001B01E7
:402800009B1A9B007B667B6EBB620023FB62FB6CFA6A93420CD3FB6CFA6A934203D1BB6CBA6A934204D37B6E3B6100237B6103E0002300243B617C61BB6CFC6C39697A69BC
:402840005B1A9441BB64FC64BA6E396EFB6E1800FFF72AFC02007B6D5A60BB6CFC6D7A6F396F90203818006800932300FFF7CCFB02007B6D1A60BA6EF96E3B6E1800FFF7D9
:402880007FFC02007B6D9A60C046BD461FB0F0BDB20700008033E1010085E20180510100C1A8000080B584B000AF786039607B68013B0A4AD35CFB607B68022B08D13B6831
:4028C0001800FFF7B3FA031E02D0FB680133FB60FB681800BD4604B080BDC046343E000080B584B000AF0200FB1D1A700F4B1B68DAB20F23FB1810218A431A70FB1D1B78B4
:402900001B01DBB210221340D9B20F23FB180F22BA1812780A431A70044B0F22BA1812781A60C046BD4604B080BDC0460008044080B584B000AF0200FB1D1A700F4B1B68FA
:40294000DAB20F23FB1820218A431A70FB1D1B785B01DBB220221340D9B20F23FB180F22BA1812780A431A70044B0F22BA1812781A60C046BD4604B080BDC04600080440EF
:4029800080B584B000AF0200FB1D1A700F4B1B68DAB20F23FB1840218A431A70FB1D1B789B01DBB240221340D9B20F23FB180F22BA1812780A431A70044B0F22BA1812785C
:4029C0001A60C046BD4604B080BDC0460008044080B584B000AF0200FB1D1A700D4B1B68DAB20F23FB187F210A401A70FB1D1B78DB01D9B20F23FB180F22BA1812780A4304
:402A00001A70044B0F22BA1812781A60C046BD4604B080BD0008044080B584B000AF0200FB1D1A700E4B1B68DAB20F23FB1801218A431A70FB1D1B7801221340D9B20F23B0
:402A4000FB180F22BA1812780A431A70044B0F22BA1812781A60C046BD4604B080BDC0460008044080B584B000AF0200FB1D1A700F4B1B68DAB20F23FB1802218A431A7059
:402A8000FB1D1B78DB18DBB202221340D9B20F23FB180F22BA1812780A431A70044B0F22BA1812781A60C046BD4604B080BDC0460008044080B584B000AF0200FB1D1A70E2
:402AC0000F4B1B68DAB20F23FB1804218A431A70FB1D1B789B00DBB204221340D9B20F23FB180F22BA1812780A431A70044B0F22BA1812781A60C046BD4604B080BDC046D6
:402B00000008044080B584B000AF0200FB1D1A700F4B1B68DAB20F23FB1808218A431A70FB1D1B78DB00DBB208221340D9B20F23FB180F22BA1812780A431A70044B0F221B
:402B4000BA1812781A60C046BD4604B080BDC0460008044080B584B000AF0200FB1D1A700F4B1B68DAB20F23FB1804218A431A70FB1D1B789B00DBB204221340D9B20F2344
:402B8000FB180F22BA1812780A431A70044B0F22BA1812781A60C046BD4604B080BDC0460001044080B584B000AF0200FB1D1A700F4B1B68DAB20F23FB1808218A431A7019
:402BC000FB1D1B78DB00DBB208221340D9B20F23FB180F22BA1812780A431A70044B0F22BA1812781A60C046BD4604B080BDC0460001044080B584B000AF0200FB1D1A70BA
:402C00000F4B1B68DAB20F23FB1840218A431A70FB1D1B789B01DBB240221340D9B20F23FB180F22BA1812780A431A70044B0F22BA1812781A60C046BD4604B080BDC0461B
:402C40000005044080B584B000AF0200FB1D1A700F4B1B68DAB20F23FB1820218A431A70FB1D1B785B01DBB220221340D9B20F23FB180F22BA1812780A431A70044B0F222C
:402C8000BA1812781A60C046BD4604B080BDC0460005044080B584B000AF0200FB1D1A700E4B1B68DAB20F23FB1801218A431A70FB1D1B7801221340D9B20F23FB180F22F1
:402CC000BA1812780A431A70044B0F22BA1812781A60C046BD4604B080BDC0460003044080B584B000AF0200FB1D1A700F4B1B68DAB20F23FB1802218A431A70FB1D1B7875
:402D0000DB18DBB202221340D9B20F23FB180F22BA1812780A431A70044B0F22BA1812781A60C046BD4604B080BDC0460003044080B584B000AF0200FB1D1A700E4B1B6833
:402D4000DAB20F23FB1801218A431A70FB1D1B7801221340D9B20F23FB180F22BA1812780A431A70044B0F22BA1812781A60C046BD4604B080BDC0460001044080B584B0B0
:402D800000AF0200FB1D1A700F4B1B68DAB20F23FB1802218A431A70FB1D1B78DB18DBB202221340D9B20F23FB180F22BA1812780A431A70044B0F22BA1812781A60C04666
:402DC000BD4604B080BDC0460001044080B500AF044B1B6880221340DB09DBB21800BD4680BDC0460400044090B583B000AF01235B42180000F05EF801235B42180000F0C3
:402E000071F8FC1D00F0C9F8030023700A4A0A4B1B78DBB210210B43DBB21370FB1D1B78180000F0BEF800F079F8002000F028F8C046BD4603B090BD97000F4080B500AFA4
:402E40000549054B1B78DBB2802252421343DBB20B70C046BD4680BD75000F4080B500AF064B1B78002B04D1FFF7BEFF034B01221A70FFF7E3FFC046BD4680BD7C020020C4
:402E800080B582B000AF0200FB1D1A70034AFB1D1B781370C046BD4602B080BD87000F4080B500AF024B1B78DBB21800BD4680BD67000F4080B582B000AF7860034B7A6892
:402EC0001A60C046BD4602B080BDC04690200F4080B500AF024B1B681800BD4680BDC04610210F4080B582B000AF7860034B7A681A60C046BD4602B080BDC04610200F40B4
:402F000080B500AF034B1B78034B1B681800BD4680BDC04604000F4010210F4080B500AF01E0FFF7D5FFFFF7BBFF03001A0008231340F6D1C046BD4680BDC04680B584B074
:402F400000AF0200FB1D1A700E4B1B68DAB20F23FB1801218A431A70FB1D1B7801221340D9B20F23FB180F22BA1812780A431A70044B0F22BA1812781A60C046BD4604B070
:402F800080BDC046000204400230800803D00138FDD1C046C046C0467047EFF3108072B6704780F31088704790B585B000AF78600F23FC18FFF7F1FF030023707B68102B37
:402FC00006D8164B154A126803218A431A601AE07B68202B08D8114B104A126803218A4301210A431A600EE07B68302B08D80B4B0A4A126803218A4302210A431A6002E04F
:403000000020FEF719FC0F23FB181B781800FFF7C8FFC046BD4605B090BDC04630001040002243088B4274D303098B425FD3030A8B4244D3030B8B4228D3030C8B420DD319
:40304000FF22090212BA030C8B4202D31212090265D0030B8B4219D300E0090AC30B8B4201D3CB03C01A5241830B8B4201D38B03C01A5241430B8B4201D34B03C01A52410B
:40308000030B8B4201D30B03C01A5241C30A8B4201D3CB02C01A5241830A8B4201D38B02C01A5241430A8B4201D34B02C01A5241030A8B4201D30B02C01A5241CDD2C309DB
:4030C0008B4201D3CB01C01A524183098B4201D38B01C01A524143098B4201D34B01C01A524103098B4201D30B01C01A5241C3088B4201D3CB00C01A524183088B4201D334
:403100008B00C01A524143088B4201D34B00C01A5241411A00D20146524110467047FFE701B5002000F006F802BDC0460029F7D076E770477047C046002B11D1002A0FD198
:40314000002900D1002802D00021C943081C07B4024802A14018029003BDC046D9FFFFFF03B4684601B5029800F032F8019B9E4602B00CBC7047C046F0B54F464646C0B41C
:403180001604360C9946330005042C0C070C150C63437E436F4365431C0CAD1964199C46A64203D980235B02984647446346250CEF191D044B464A4343432D0C240464196C
:4031C0009918C91920000CBC90469946F0BDC046F0B54D46564644465F46F0B4924683B004000D0099468B422FD82CD04946504600F0AEF829000600200000F0A9F8331A92
:403200009846203B9B4600D574E053465A4693401F005346424693401E00AF4229D826D05B46A41BBD41002B00DA79E0002200230092019301235A46934001930123424628
:403240009340009319E08242D0D900220023009201930C9B002B01D01C605D600098019903B03CBC90469946A246AB46F0BDA342D6D900220023009201934346002BE8D0B8
:40328000FB0772081A4346467B080EE0AB4201D1A2420CD8A41A9D41012024196D410021013E24184D41002E06D0AB42EED9013E24196D41002EF8D15B460098019900191A
:4032C0006941002B22DB2B005A46D3402A004446E2401C005B461500002B2CDB26009E40330026004746BE403200801A994100900191AEE7424620239B1A5246DA40414646
:4033000013004A468A4017001F4382E7424620239B1A2A0046469A402300F3401343D5E74246202300219B1A0022009101920122DA40019282E74246202326009B1ADE40E2
:403340002F00B446974066463B003343C9E7C04610B5002903D100F007F8203002E0081C00F002F810BDC0461C2101231B04984201D3000C10391B0A984201D3000A0839D5
:403380001B09984201D30009043902A2105C40187047C04604030202010101010000000000000000014B18687047C046E80100200E4B70B500251E000D4CE41AA410A5427C
:4033C00004D0AB00F35898470135F8E700F03AFD084B00251E00084CE41AA410A54204D0AB00F35898470135F8E770BD503E0000503E0000503E0000583E0000002310B552
:403400009A4203D0CC5CC4540133F9E710BD03008218934202D019700133FAE77047000000000000ACFDFF7F010000000605000054050000A2050000F00500003E060000B7
:403440008C06000000300F40000280320F40800000400F40000200430F40800000450F40800000460F40000200320F40543D0000800000340F40D43C0000800080340F40C2
:40348000543C0000800000360F40D43B0000800080360F40543B0000800070000F40343B0000200008600F40283B00000C0080450F40A83A0000800000440F40283A0000F5
:4034C000800080440F40A8390000800000370F4028390000800080370F40A8380000800000350F4028380000800080350F40A8370000800000330F40283700008000803330
:403500000F40A8360000800080430F4028360000800000420F40A8350000800080420F40283500008000000000000000000000000000000000000000000000000000000012
:4035400000000000000000000000100000000000000000000000100000000000000000000000000000000000000000000000000000000000000000000000000040002000CB
:4035800000000000000000000000000000000000000000000000100000000000000000000000000000000000000000000000000000000000000000000000000000000000FB
:4035C00000000000000000000000000000000000000000000000000000000000000000000000000000000000000000000000000000000000000000000000000000000020AB
:40360000000000000000200000000000000000000000000000000000000000000000000000000000000000000000000000000000000000000000000000000000000000006A
:40364000000000000000000000000000000000000000002000000000000000000000000000000000000000000000000000000000000000000000000000000000000000002A
:4036800000000000000000000000000000000000000000000000200000000000000000000000000000000000000000000000000000000000000000000000000000000000EA
:4036C000010000000000000000000000000000000000000000000000010000000000000000000000000000000000E000800000000000800000001000100010000000D000E8
:403700000000000000000000000000000000000000000000000000000000000000000000000000000000000000000000000000000000000000802008000000000000008061
:4037400000000000008060600000000000000008000000000000004000000000000000000000000000000080000000000080000000000000000000890000000000000040F8
:403780000000000000004009000000000000000000000000000000000000000000000080000000000000000000000000000000000000000000000000000000000000000040
:4037C000010000000000000000000000000000000000000000000020000000000000000000000000000000000000000001000000000000000000000091000800000000000E
:403800000000000000000000000000000000000000000000000000000000000000000000000000000000000000000000000000000000000000000000010000000000000087
:4038400000000004000000000000000000000000000000000000000000000000000000000000000000000000000100000000810001000000000000000000000000000000C1
:403880000000000000000000000000000000000000000000000000000000000001008000000000000000000000000000000000000000000000000000000000000002000085
:4038C00000008000000001000100000000000000000000040000000000000000000000000000000000000000090000000000000000000000000000009100080000000B0095
:403900000000000000000000000000000000000000000000000000000000000000000000000000000000000002000100000000000000000000000000000000000000000084
:40394000004000000000000000000000000000000000000000000000000000000000000000000000000000000001000000008100010500000000000000010100000000007D
:4039800000450000000000000000000000000000000000000000000000000000000000000000000000000000000000000000000000000000000000000000000000000000C2
:4039C00000000000000000000000000000000000000000000000000000000000000000000000000000000000000001000000000000000000000000000000000000000000C6
:403A00000000000000000000000000000000000000000000000000000000000000000000000000000000000000000000000000000000000000100000000000000000000076
:403A40000000000000000000000000000000000000000000000000000000000000000000000000000000000000000000000000000000000000000000000000000000000046
:403A80000000000000000000000000000000000000000000000000000000000000000000000000000000000000000000000000000000000000000000000000000000000006
:403AC00000000000000000000000000000000000000000000000000000100000000000000000000000000000000000000000000000000000000000000000000000000000B6
:403B00000000000000000000000000000000000000000000000004000000000000000000000000000000000000000000000000000200080100000000000000000000000076
:403B40000000000000000D000000000D0000000000000000000001000000000000000000000001000000000000000000000000000000000000000000000000000000000029
:403B800000000000000000000000010000000000000040005400000000EC002023FFFFFF00830301180000000100000004000404009900014000400040408000800080007E
:403BC00080008000000000000000000000000000000000000000000000000000000000000000000000000000000000000000000000000000000000000000000000000000C5
:403C00000000000000000000000000000000000000000000410000000000000000FFFFFF008303011800000000000000000004000009000140004000404080008000800019
:403C40008000800000000000000000000000000000000000000000000000000000000000000000000000000000000000000000000000000000000000000000000000000044
:403C80000000000000000000000000000000000000000000410000000000000000FFFFFF008303011800800000000000000004040099000140004000404080008000800085
:403CC00080008000000000000000000000000000000000000000000000000000000000000000000000000000000000000000000000000000000000000000000000000000C4
:403D00000000010000000100000000000000000000000000540000000000000000FFFFFF000000011800000000000000040004000309000140004000404080008000800082
:403D4000800080000000000000000000000000000000000000000000000000000000000000000001000000000800000000000D00000001000000000100000000000000002B
:403D800000000200080004000101020000000000000000101005000000D1020007FFFFFF00A00004180080000500000004040404011100014000C0004040C000C000C000D1
:403DC000C000C00000000000000000000000000000000000030405060708090A0B0C0E0F101112131415161718191B1C1D1E1F2021222325262728292A2B2E2F30313233BC
:403E000034350000EEDBC9B9AA9B8E82766B60564D443B332C241D17100A040000001F003B005A0078009700B500D400F300110130014E011F1C1F1E1F1E1F1F1E1F1E1F03
:403E400043000000F8B5C046F8BC08BC9E4670475903000075110000F8B5C046F8BC08BC9E46704731030000783E0000C800002028010000D80000000000000000000000BE
:403E800000000000000000000000000000000000000000000000000001000000000000000000000001000000000000000000000000000000010000000100000000000000FE
:403EC00001000000000000000000000000000000010000000000000001000000000000000100000001000000000000000000000001000000010000000100000001000000B9
:403F00000000000000000000000000000100000000000000000000000100000000366E01C05D0000180000000000E02E01000000F00000000404040000000000000000009A
:403F4000000000000000000000000000000000000000000000000000403E0000000000000000000000000000000000000000000000000000000000000000000000000000C3
:403F80000000000000000000000000000000000000000000000000008801002000000000000000000000000000000000000000000000000000000000000000000000000058
:403FC00000000000000000000000000000000000000000000000000000000000000000000000000000000000000000000000000000000000000000000000000000000000C1
:404000000000000000000000000000000000000000000000000000000000000000000000000000000000000000000000000000000000000000000000000000000000000080
:404040000000000000000000000000000000000000000000000000000000000000000000000000000000000000000000000000000000000000000000000000000000000040
:404080000000000000000000000000000000000000000000000000000000000000000000000000000000000000000000000000000000000000000000000000000000000000
:020000040003F7
:0200000490303A
:02000000FB887B
:0200000490402A
:4000000000000000000000000000000000000000000000000000000000000000000000000000000000000000000000000000000000000000000000000000000000000000C0
:400040000000000000000000000000000000000000000000000000000000000000000000000000000000000000000000000000000000000000000000000000000000000080
:0200000490501A
:0C0000000002101311A0000110260D28B2
:0200000490600A
:0100000001FE
:00000001FF