:400000000080002011000000D5110000D511000080B500AF01F0E8F880B500AF214B12221A6001F0FBFC204B180003F00DF8182001F036FB1D4B1E4A1A601E4B8022D205A7
:400040001A601D4B1D4A1A601D4B1E4A1A601E4B802212061A601D4B00221A601C4B40221A601C4B1900082001F030FC082001F053FC194B194A1A600E4B194A1A60194B87
:4000800008221A60C046174B1B6808221340FAD1144B01221A60034B11221A60C046BD4680BDC04630001040001BB70004010B40060000800C020B400003014000BF5D0045
:4000C0000000014040FF008008010B4000010B404C010140AD1B000008020B40FF7F00000500004010020B4080B586B000AF72B61723FB1800221A7025E01723FB181A7876
:4001000013005B009B185B00624A9B183B613B691A78597809020A43997809040A43DB781B06134318003B691A795B791B0213439BB2190001F01AF81723FB181A7817239C
:40014000FB1801321A701723FB181B78052BD4D91723FB1800221A7036E01723FB181A7813009B009B185B004B4A9B18FB60FB681A78597809020A43997809040A43DB78C9
:400180001B061343BB60FB681A79597909020A43997909040A43DB791B0613437B60BA1CFB68197A5B7A1B020B431380BB1C1A887968BB68180000F0E9FF1723FB181A7890
:4001C0001723FB1801321A701723FB181B780E2BC3D9324B802252001A80314B01221A70304BC02292011A602F4BEE2212021A602E4B992212041A602D4B992212041A6003
:400200002C4B992212041A602B4B802212041A602A4B992212041A60294B992212041A60284A284B1B78DBB23C218B43DBB214210B43DBB21370244A234B1B78DBB2162152
:400240000B43DBB21370214B80221A60204B214A1A60214B214A1A60214B08221A60214BC02212011A60204B204A1A60204B1C221A60204B204A1A60204B214A1A60214B8F
:40028000214A1A60FFF7C8FE00F090FFC046BD4606B080BD043500002835000000600F4002600F40000202400003024000500F4010500F4020500F4028500F4040500F40F0
:4002C00070500F4001700F4000700F400000044008000440800D400008010440B60D0000000204400802044008030440B66D00000005044008050440806D1B000806044009
:40030000B60D030008080440B66DDB0010B5064C2378002B07D1054B002B02D0044800E000BF0123237010BDF001002000000000E0340000084B10B5002B03D00749084859
:4003400000E000BF07480368002B00D110BD064B002BFBD09847F9E700000000F4010020E0340000C80000200000000080B584B000AF78607B681B0907221A4013009B001C
:400380009B185B00FB607B680F221340FA68D318FB60FB681800BD4604B080BD80B584B000AF78607B681B0B07221A4013009B009B185B00FB607B681B0A0F221340FA68D5
:4003C000D318FB60FB681800BD4604B080BDC04680B584B000AF78607B681B0D03221A4013009B009B185B00FB607B681B0C0F221340FA68D318FB60FB681800BD4604B049
:4004000080BDC04680B584B000AF78607B681B0F03221A4013009B009B185B00FB607B681B0E0F221340FA68D318FB60FB681800BD4604B080BDC04680B584B000AF786049
:400440007B681B0D01221A4013009B009B185B00FB607B681B0C0F221340FA68D318FB60FB681800BD4604B080BDC04680B584B000AF78607B681B0B03221340FA22920013
:400480005343FB607B681B0A0F22134064225343FA68D318FB607B681B090F221A4013009B009B185B001A00FB689B18FB607B680F221340FA68D318FB60FB681800BD4695
:4004C00004B080BD80B582B000AF786039607B68052B00D9EFE07B689A00794BD3181B689F46784A3B681B01D3180C331B68DBB2180001F047FC734A3B681B01D31808338C
:400500001B68DBB2180001F0EFFB6E4A3B681B01D31804331B68DBB2180001F0BDFB694B3A681201D358DBB2180001F003FCC2E0644A3B681B01D3180C331B68DBB21800C4
:4005400001F048FC5F4A3B681B01D31808331B68DBB2180001F066FC5A4A3B681B01D31804331B68DBB2180001F084FC554B3A681201D358DBB2180001F0A4FC9BE0514A53
:400580003B681B01D3180C331B68DBB2180002F02DFA4C4A3B681B01D31808331B68DBB2180002F04BFA474A3B681B01D31804331B68DBB2180002F069FA424B3A68120106
:4005C000D358DBB2180002F089FA74E03D4A3B681B01D3180C331B68DBB2180002F0A2FA384A3B681B01D31808331B68DBB2180002F0BEFA334A3B681B01D31804331B6822
:40060000DBB2180002F0DCFA2E4B3A681201D358DBB2180002F0FCFA4DE02A4A3B681B01D3180C331B68DBB2180002F019FB254A3B681B01D31808331B68DBB2180002F041
:4006400037FB204A3B681B01D31804331B68DBB2180002F055FB1B4B3A681201D358DBB2180002F075FB26E0164A3B681B01D3180C331B68DBB2180002F092FB114A3B6852
:400680001B01D31808331B68DBB2180002F0AEFB0C4A3B681B01D31804331B68DBB2180002F0CCFB074B3A681201D358DBB2180002F0EAFBC046C046BD4602B080BDC0466B
:4006C000EC340000CC00002080B500AF01F0D4FE02003B4B1A603A4B1B681800FFF778FE0200384B1A60364B1B681800FFF756FE0200354B1A60324B1B681800FFF736FE16
:400700000200324B1A60324B1B68002B41D12D4B1B680A21180002F0E3FC030019000020FFF7D0FE274B1B680A21180002F05EFD0B0019000120FFF7C5FE234B1B680A21D5
:40074000180002F0CDFC030019000220FFF7BAFE1D4B1B680A21180002F048FD0B0019000320FFF7AFFE194B1B680A21180002F0B7FC030019000420FFF7A4FE134B1B68E3
:400780000A21180002F032FD0B0019000520FFF799FE0D4B1B68002B05D10E4B1B68002B01D100F019F8084B1B68002B02D0094B00221A6001F0A4FEC046BD4680BDC046A7
:4007C000740200208C02002088020020780200200C0200201002002080B58CB000AF0023FB622BE0D84AFB6A1B01D3180C331B68DBB2180002F0D4FAD34AFB6A1B01D31828
:4008000008331B68DBB2180002F0F0FACE4AFB6A1B01D31804331B68DBB2180002F00EFBC94BFA6A1201D358DBB2180002F02CFB502001F093F8FB6A0133FB62FB6A092BAC
:40084000D0DD002002F0ACFA002002F0CFFA002002F0F4FA002002F017FB0023BB622BE0B94ABB6A1B01D3180C331B68DBB2180002F0F6F9B44ABB6A1B01D31808331B686A
:40088000DBB2180002F014FAAF4ABB6A1B01D31804331B68DBB2180002F032FAAA4BBA6A1201D358DBB2180002F052FA502001F055F8BB6A0133BB62BB6A092BD0DD00206D
:4008C00002F0CEF9002002F0F3F9002002F018FA002002F03DFA00237B622BE09A4A7B6A1B01D3180C331B68DBB2180002F01AF9954A7B6A1B01D31808331B68DBB218005F
:4009000002F036F9904A7B6A1B01D31804331B68DBB2180002F054F98B4B7A6A1201D358DBB2180002F074F9502001F017F87B6A01337B627B6A092BD0DD002002F0F2F80E
:40094000002002F015F9002002F03AF9002002F05FF900233B622BE07B4A3B6A1B01D3180C331B68DBB2180002F040F8764A3B6A1B01D31808331B68DBB2180002F05EF8C4
:40098000714A3B6A1B01D31804331B68DBB2180002F07CF86C4B3A6A1201D358DBB2180002F09CF8502000F0D9FF3B6A01333B623B6A092BD0DD002002F018F8002002F0DF
:4009C0003DF8002002F062F8002002F087F80023FB612BE05C4AFB691B01D3180C331B68DBB2180001F0F6F9574AFB691B01D31808331B68DBB2180001F014FA524AFB6975
:400A00001B01D31804331B68DBB2180001F032FA4D4BFA691201D358DBB2180001F052FA502000F09BFFFB690133FB61FB69092BD0DD002001F0CEF9002001F0F3F90020F0
:400A400001F018FA002001F03DFA0023BB612BE03D4ABB691B01D3180C331B68DBB2180001F090F9384ABB691B01D31808331B68DBB2180001F038F9334ABB691B01D31874
:400A800004331B68DBB2180001F006F92E4BBA691201D358DBB2180001F04CF9502000F05DFFBB690133BB61BB69092BD0DD002001F068F9002001F017F9002001F0ECF875
:400AC000002001F037F900237B612BE01E4A7B691B01D3180C331B68DBB2180001F07AF9194A7B691B01D31808331B68DBB2180001F098F9144A7B691B01D31804331B6857
:400B0000DBB2180001F0B6F90F4B7A691201D358DBB2180001F0D6F9502000F01FFF7B6901337B617B69092BD0DD002001F052F9002001F077F9002001F09CF9002001F0C5
:400B4000C1F900233B612DE0CC0000207B4A3B691B01D3180C331B68DBB2180001F046FF764A3B691B01D31808331B68DBB2180001F064FF714A3B691B01D31804331B68B4
:400B8000DBB2180001F082FF6C4B3A691201D358DBB2180001F0A2FF502000F0DFFE3B6901333B613B69092BD0DD002001F01EFF002001F043FF002001F068FF002001F00F
:400BC0008DFF0023FB602BE05C4AFB681B01D3180C331B68DBB2180001F0A4FF574AFB681B01D31808331B68DBB2180001F0C0FF524AFB681B01D31804331B68DBB2180052
:400C000001F0DEFF4D4BFA681201D358DBB2180001F0FEFF502000F0A1FEFB680133FB60FB68092BD0DD002001F07CFF002001F09FFF002001F0C4FF002001F0E9FF0023BB
:400C4000BB602BE03D4ABB681B01D3180C331B68DBB2180002F004F8384ABB681B01D31808331B68DBB2180002F022F8334ABB681B01D31804331B68DBB2180002F040F8FD
:400C80002E4BBA681201D358DBB2180002F060F8502000F063FEBB680133BB60BB68092BD0DD002001F0DCFF002002F001F8002002F026F8002002F04BF800237B602BE0B0
:400CC0001E4A7B681B01D3180C331B68DBB2180002F066F8194A7B681B01D31808331B68DBB2180002F082F8144A7B681B01D31804331B68DBB2180002F0A0F80F4B7A6862
:400D00001201D358DBB2180002F0BEF8502000F025FE7B6801337B607B68092BD0DD002002F03EF8002002F061F8002002F086F8002002F0A9F800233B60EEE0CC00002081
:400D4000834A3B681B01D3180C331B68DBB2180001F018F87E4A3B681B01D31808331B68DBB2180000F0C0FF794A3B681B01D31804331B68DBB2180000F08EFF744B3A6866
:400D80001201D358DBB2180000F0D4FF704A3B681B01D3180C331B68DBB2180001F01AF86B4A3B681B01D31808331B68DBB2180001F038F8664A3B681B01D31804331B68C8
:400DC000DBB2180001F056F8614B3A681201D358DBB2180001F076F85D4A3B681B01D3180C331B68DBB2180001F000FE584A3B681B01D31808331B68DBB2180001F01EFE1C
:400E0000534A3B681B01D31804331B68DBB2180001F03CFE4E4B3A681201D358DBB2180001F05CFE502000F099FD494A3B681B01D3180C331B68DBB2180001F073FE444AEE
:400E40003B681B01D31808331B68DBB2180001F08FFE3F4A3B681B01D31804331B68DBB2180001F0ADFE3A4B3A681201D358DBB2180001F0CDFE364A3B681B01D3180C338A
:400E80001B68DBB2180001F0EBFE314A3B681B01D31808331B68DBB2180001F009FF2C4A3B681B01D31804331B68DBB2180001F027FF274B3A681201D358DBB2180001F031
:400EC00047FF234A3B681B01D3180C331B68DBB2180001F065FF1E4A3B681B01D31808331B68DBB2180001F081FF194A3B681B01D31804331B68DBB2180001F09FFF144B99
:400F00003A681201D358DBB2180001F0BDFF502000F024FD3B6801333B603B68092B00DC0EE701F0A9FA02000A4B1A60094B1B681800FFF733FA0200074B1A60074B01222A
:400F40001A60FFF7C1FBC046BD460CB080BDC046CC00002074020020880200201002002080B500AF72B60F4B8C229B58DBB2180000F008FF0B4B88229B58DBB2180000F0B4
:400F8000B3FE084B84229B58DBB2180000F084FE044B80229B58DBB2180000F0CBFEC046BD4680BDCC00002080B500AF0D4BDB6BDBB2180000F0E6FE0A4B9B6BDBB218000E
:400FC00000F092FE074B5B6BDBB2180000F064FE044B1B6BDBB2180000F0ACFEC046BD4680BDC046CC00002080B582B000AF01F0BFF9554A554B1100180001F003FA62B6E9
:40100000534B1900002000F0B1FD00237B6000233B6001F0A9FFC04601F05EFF031EFBD101F0F4FF03007B60C04601F055FF031EFBD001F0EBFF03003B607A683B68D31AC1
:40104000444A93426EDC444B1B68DA43424B1A60414B1B68002B65D001F030FA02003F4B1A603E4B1B681800FFF7CCF902003C4B1A603A4B1B681800FFF7DEF90200394BA8
:401080001A60364B1B681800FFF7F0F90200364B1A60334B1B680A21180002F021F8030019000020FFF70EFA2D4B1B680A21180002F09CF80B0019000120FFF703FA294BC5
:4010C0001B680A21180002F00BF8030019000220FFF7F8F9234B1B680A21180002F086F80B0019000320FFF7EDF91F4B1B686421180002F07BF80B000A21180001F0F0FF2C
:40110000030019000420FFF7DDF9174B1B680A21180002F06BF80B0019000520FFF7D2F901F0EEF97A683B68D31A0A4A934200DC71E7094B1B68002B02D1FFF711FF6AE749
:40114000FFF732FF67E7C0462220041039170700C906000080C3C9010C0200208402002080020020700200207C02002080B582B000AF786039603A687B680021180002F08E
:40118000A6F9C046BD4602B080BDC04680B584B000AFF860B9607A607A68B968FB68180002F08CF9C046BD4604B080BD80B500AF054B03221A60054B03221A60044B00220D
:4011C0001A60C046BD4680BD3000304030003140000E3F4080B500AF02F044F903001B680C2B00D1FEE7FEE780B586B000AF224B7B61224B3B61204B7B6135E03B691B6807
:40120000FB603B695B68BB603B699B683B6000237B600CE0FB681A68BB681A60BB680433BB60FB680433FB607B6804337B607A683B689A42EED13B69DB683B6000237B6024
:4012400008E0BB6800221A60BB680433BB607B6804337B607A683B689A42F2D13B6910333B617B69013B7B617B69002BC6D102F0FFF8FFF7B9FEFEE701000000003D00005B
:4012800080B582B000AF154B144A126801218A431A6000237B600FE07B68032B04D8104B7A689200D35800E00E4B0F4A796889008B507B6801337B607B682F2BECD9FEF7E3
:4012C00013FF0A4B00221A60044B044A126801210A431A60C046BD4602B080BD0000104000000000D511000000000020C000002090B587B000AF0023BB6000F09FFB031EA9
:4013000000D184E0FC1D01F0A8FE03002370424B414A126801210A431A6003233B6100237B6111E03D4B1B681A003F2313403C497A698A181278934203D17B6903333B6138
:4013400005E07B6901337B617B692D2BEAD9354B1B681F22134007D1324B324A12681F218A430C210A431A602F4B1B682F4A1340FB603B692E4A53438022D20194466344E6
:40138000DB0B013B5B055B0DFA681343FB60FB68A02252031343FB603B69192B05D8FB68FF2292051343FB6016E03B69214A944663441B78DBB219003B691A3B1E4AD35C25
:4013C000CB18BB60BB68FF2B00D9FF23BB60BB689B05FA681343FB60134BFA681A60174B1B683B60302001F03FFE154B144A12688021C9050A431A60142000F0AFFA0F4BE9
:401400003A681A60FB1D1B78180001F02AFEC046BD4607B090BDC04650000C402CFF0B406C3C000034FF0B400800224000F800C040420F004DF3FF0F9C3C00003000104010
:401440000000224080B500AF044B044A126804490A401A60C046BD4680BDC04600002240FFFFFFBF80B500AF054B1A688023DB05134001D0012300E000231800BD4680BDB8
:401480000000224080B584B000AF3C4B1B78DBB21A003F231340042B01D9012300E000237B600323BB600023FB6011E0344B1B681A003F2313403349FA688A1812789342D1
:4014C00003D1FB680333BB6005E0FB680133FB60FB682D2BEAD92C4B2B4A126801218A431A602A4B1A682A4B1A607B68002B13D0284B1A68284B1A60244A254B1B681F21E6
:401500008B4326490978C9B20B431360214B244A1278D2B21A6007E01C4A1D4B1B681F218B4308210B431360BB68302B0CD11D4B7A68002A03D01C4A1278D2B202E01B4AC2
:401540001278D2B21A600EE0BB68182B0BD1154B7A68002A03D0164A1278D2B202E0154A1278D2B21A60144B134A126802210A431A60C046BD4604B080BDC04600F3FF0F1C
:401580002CFF0B406C3C000050000C4034FF0B402C02002020FF0B4030020020C0F1FF0FC1F1FF0F28FF0B40C3F1FF0F3FF3FF0FC2F1FF0F3EF3FF0F24002C4080B584B0FD
:4015C00000AF254B1B78DBB21A003F231340042B01D9012300E000237B600323BB600023FB6011E01D4B1B681A003F2313401C49FA688A181278934203D1FB680333BB6018
:4016000005E0FB680133FB60FB682D2BEAD9154B144A126802218A431A60134A124B1B681F218B431900114B1B681F2003400B4313607B68002B03D00D4A0E4B1B681360A6
:401640000D4BBA680D498C4662441278D2B21A60C046BD4604B080BD00F3FF0F2CFF0B406C3C000024002C4034FF0B402C02002020FF0B403002002028FF0B404DF3FF0FA9
:4016800080B500AF054B1B680222134001D0012300E000231800BD4680BDC04624002C4090B587B000AF786000233B610023FB600B23FC1801F0D1FC03002370FFF7D2FE7A
:4016C000031E03D001233B61FFF7BCFEFFF7D8FF031E09D07B68182B02D07B68302B03D10123FB60FFF76AFF7B68022B00D8AFE07B68302B00D9ABE0614B1B78DBB21A00D8
:401700007B689A420AD35F4A1723FB1812781A705D4A1623FB1812781A703FE05B4B1B78DBB21A007B689A420AD3594A1723FB1812781A70574A1623FB1812781A702DE04F
:40174000554B1B78DBB21A007B689A420AD3534A1723FB1812781A70514A1623FB1812781A701BE04F4B1B78DBB21A007B689A420AD34D4A1723FB1812781A704B4A1623C9
:40178000FB1812781A7009E0494A1723FB1812781A70484A1623FB1812781A707B68DA1E0A23FB1844498A5C1A700A23FB181B782F2B0DD97B682A2B0AD9404B19221A60AD
:4017C000052001F041FC1523FB1819221A7007E03A4B1B68DAB21523FB183F210A401A700A23FA181523FB1812781B789A4208D2324B7A68033A30498A5C1A60052001F0A4
:4018000023FC2F4B7A682B498C4662441278D2B21A602C4B1722BA1812781A602A4B1622BA1812781A60052000F0BEF80A23FA181523FB1812781B789A420CD91F4B7A6831
:40184000033A1D498A5C1A60052001F0FDFB02E0002000F077F83B69012B01D1FFF748FDFB68012B01D1FFF70DFE0B23FB181B78180001F0F6FBC046BD4607B090BDC046D6
:4018800040F3FF0F41F3FF0F42F3FF0F43F3FF0F44F3FF0F45F3FF0F46F3FF0F47F3FF0F48F3FF0F49F3FF0F4AF3FF0F4BF3FF0F4CF3FF0F4DF3FF0F6C3C00002CFF0B4021
:4018C00028FF0B401CFF0B4020FF0B4080B584B000AF02003960FB1D1A7080239B05FB60FB1D1B781F2B02D9002000F02BF8FB1D1B7810339B00FA68D3181B68BB60FB1D24
:401900001B7810339B00FA68D3183A681A60BB681800BD4604B080BD80B582B000AF0200FB1D1A70064BFA1D12781F210A40012191400A001A60C046BD4602B080BDC046F3
:4019400000E100E080B582B000AF0200FB1D1A7001BEC046BD4602B080BDC04680B582B000AF786009E00D4B1B68180001F06CFB7B680B4A944663447B607A6880231B02D7
:401980009A42F0D8074B1B687A685343180001F05BFBC046BD4602B080BDC046780100200080FFFF7001002080B582B000AF0200BB1D1A80BB1D1B88044A127853431800A6
:4019C00001F042FBC046BD4602B080BD7401002080B500AF0F4B0F4A126801218A431A600C4B0C4A126802218A431A600A4B0A4A126830218A4310210A431A60064B064A47
:401A0000126807218A4301210A431A60C046BD4680BDC04600002240000F224080B500AFFFF7D6FF044B044A1268802109060A431A60C046BD4680BD0000224080B500AF66
:401A4000044B1B68002B01DA012300E000231800BD4680BD0000224090B583B000AFFC1D01F0FBFA03002370074B074A1268C02109020A431A60FB1D1B78180001F0F1FA82
:401A8000C046BD4603B090BD00010B4080B500AF054B1A68C0231B02134001D0012300E000231800BD4680BD00010B4090B583B000AFFC1D01F0D1FA030023700D4B0D4AEB
:401AC00012680D490A408021C9010A431A60094B084A126808490A40802109020A431A60FB1D1B78180001F0BCFAC046BD4603B090BDC04600010B40FF3FFFFF90B585B0F1
:401B000000AF78600B23FC1801F0A7FA03002370FFF7BCFF031E04D00123FB60FFF7C6FF01E00023FB607B680D4A13407B600D4B0C4A12680C4911407A680A431A60094B42
:401B40001B68FB68012B01D1FFF786FF0B23FB181B78180001F085FAC046BD4605B090BD0404040010020B40FBFBFBFF80B584B000AF786039600023FB607B68022B0AD84D
:401B8000094B7A689200D358FB60074B7A6892003968D15002E00020FFF7D4FEFB681800BD4604B080BDC0464002002080B500AF344B1B68042213401FD0334B1B68042239
:401BC000134017D0314B1B6804221340DA432E4B1B681A402C4B1A602C4B1B68042293431A002A4B1A602A4B1B68002B02D0284B1B6898470420FFF781FF224B1A688023DA
:401C0000DB00134022D0204B1A688023DB00134017D01E4B1A688023DB001340DA431A4B1B681A40184B1A60184B1B68194A1A40164B1A60164B5B68002B02D0144B5B6826
:401C400098478023DB001800FFF758FF0D4B1A688023DB02134011D00B4B1A688023DB02134006D00A4B9B68002B02D0084B9B6898478023DB021800FFF740FFC046BD4633
:401C800080BDC04610020B40840100203C02002040020020FFFBFFFF80B584B000AF0200FB1D1A700F4B1B68DAB20F23FB1802218A431A70FB1D1B78DB18DBB202221340A1
:401CC000D9B20F23FB180F22BA1812780A431A70044B0F22BA1812781A60C046BD4604B080BDC0460006044080B584B000AF0200FB1D1A700E4B1B68DAB20F23FB18012185
:401D00008A431A70FB1D1B7801221340D9B20F23FB180F22BA1812780A431A70044B0F22BA1812781A60C046BD4604B080BDC0460006044080B584B000AF0200FB1D1A709B
:401D40000F4B1B68DAB20F23FB1804218A431A70FB1D1B789B00DBB204221340D9B20F23FB180F22BA1812780A431A70044B0F22BA1812781A60C046BD4604B080BDC04663
:401D80000006044080B584B000AF0200FB1D1A700F4B1B68DAB20F23FB1808218A431A70FB1D1B78DB00DBB208221340D9B20F23FB180F22BA1812780A431A70044B0F22AB
:401DC000BA1812781A60C046BD4604B080BDC0460006044080B584B000AF0200FB1D1A700F4B1B68DAB20F23FB1810218A431A70FB1D1B781B01DBB210221340D9B20F233B
:401E0000FB180F22BA1812780A431A70044B0F22BA1812781A60C046BD4604B080BDC0460003044080B584B000AF0200FB1D1A700F4B1B68DAB20F23FB1820218A431A708C
:401E4000FB1D1B785B01DBB220221340D9B20F23FB180F22BA1812780A431A70044B0F22BA1812781A60C046BD4604B080BDC0460006044080B584B000AF0200FB1D1A70A9
:401E80000F4B1B68DAB20F23FB1804218A431A70FB1D1B789B00DBB204221340D9B20F23FB180F22BA1812780A431A70044B0F22BA1812781A60C046BD4604B080BDC04622
:401EC0000000044080B584B000AF0200FB1D1A700F4B1B68DAB20F23FB1808218A431A70FB1D1B78DB00DBB208221340D9B20F23FB180F22BA1812780A431A70044B0F2270
:401F0000BA1812781A60C046BD4604B080BDC0460000044080B582B000AF786039607B683A681A403B689A4201D1012300E000231800BD4602B080BD80B584B000AF7860AF
:401F40007B680322134006D17B686421180001F04DF90B1E07D17A68C8235900100001F045F90B1E02D10123FB6001E00023FB60FB681800BD4604B080BDC04680B584B05A
:401F800000AF78607B681B0907221A4013009B009B185B00FB607B680F221340FA68D318FB60FB681800BD4604B080BD80B584B000AF78607B681B0B07221A4013009B0051
:401FC0009B185B00FB607B681B0A0F221340FA68D318FB60FB681800BD4604B080BDC04680B584B000AF78607B681B0D03221A4013009B009B185B00FB607B681B0C0F2203
:402000001340FA68D318FB60FB681800BD4604B080BDC04680B582B000AF78608023DA037B6811001800FFF775FF03001800BD4602B080BD80B584B000AF78607B681B0F42
:4020400003221A4013009B009B185B00FB607B681B0E0F221340FA68D318FB60FB681800BD4604B080BDC04680B584B000AF78607B681B0D01221A4013009B009B185B00E9
:40208000FB607B681B0C0F221340FA68D318FB60FB681800BD4604B080BDC04680B584B000AF78607B681B0B03221340FA2292005343FB607B681B0A0F2213406422534362
:4020C000FA68D318FB607B681B090F221A4013009B009B185B001A00FB689B18FB607B680F221340FA68D318FB60FB681800BD4604B080BD80B582B000AF78607A6880236E
:402100001B04134001D0012300E000231800BD4602B080BD80B586B000AFF860B9607A603B60FB68DB057B61BB689B057A6913437B617B680A21180000F0D2FF03001B052A
:402140007A6913437B617B680A21180001F04EF80B001B047A6913437B613B680A21180000F0BEFF03001B037A6913437B613B680A21180001F03AF80B001B027A6913437B
:402180007B613B6A0A21180000F0AAFF03001B017A6913437B613B6A0A21180001F026F80B001A007B6913437B617B691800BD4606B080BD80B586B000AFF860B9607A6005
:4021C0007B687B61FB680A21180000F089FF03001B053B61FB680A21180001F007F80B001B043A6913433B61BB680A21180000F077FF03001B073A6913433B61BB680A211A
:40220000180000F0F3FF0B001B063A6913433B617A68FA239900100000F062FF03001B033A6913433B617A69FA239900100000F0DDFF0B007B617B696421180000F050FF18
:4022400003001B023A6913433B617B696421180000F0CCFF0B007B617B690A21180000F03FFF03001B013A6913433B617B690A21180000F0BBFF0B001A003B6913433B61F1
:402280003B691800BD4606B080BDC04690B587B000AFF860B9607A60BB68022B05D8BB680C33BB607B68013B7B60BB6801331A2253430A21180000F013FF03001A00FB685E
:4022C000D2187B68D2187B689B08D4187B686421180000F005FF03001A0013005B009B185B00E4187A68C8235900100000F0F8FE0300E3180721180000F078FF0B007B6104
:402300007B69002B01D107237B617B691800BD4607B090BD80B584B000AF786039607B685A1E0A4B5200D35AFB603B681800FFF703FE031E05D07B68022B02D9FB68013376
:40234000FB60FB681800BD4604B080BDB43C000080B582B000AF7860044A7B6811001800FFF704FCC046BD4602B080BD0125000080B500AF054B1B78002B01D100F008F893
:402380000020FFF7E5FFC046BD4680BD9002002080B584B002AF154B01221A70144B00221A60144B0022DA60134B00221A70134B00221A60124B1A0001210120FFF7FAFEA2
:4023C00003007B60002300930023002200210020FFF7A0FE03003B607A683B681100180000F010F8C046BD4602B080BD900200206402002094020020A8020020A402002075
:40240000B207000090B587B000AF786039603B681800FFF70FFE03007B613B681800FFF723FE03003B613B681800FFF737FE0300FB607A683B681100180000F08DF80300CF
:402440000C000B4A136054600A4B3A685A60094B7A681A60FA6839697B691800FFF716FF0200044B9A60C046BD4607B090BDC046B00200209402002090B583B002AF0C4B02
:402480001B68190000231A000A4B5C681B685B1854410949002200921A002300080000F03BF9054B1B681800BD4601B090BDC04664020020B00200209402002090B583B0B8
:4024C00002AF0C4B1B68190000231A000A4B5C681B685B1854410949002200921A002300080000F019F9054B5B681800BD4601B090BDC04664020020B002002094020020CA
:4025000090B500AF104B1A68104B1B68D2180E4B1A600D4B1A680E4B1B689A4210D30D4B5C681B68012100225B185441094A13605460054B1A68064B1B68D21A024B1A60FC
:40254000C046BD4690BDC046680200205C02002060020020B0020020F0B593B000AF7862396200230024BB63FC637B6A1800FFF795FD03007B63634B7B6419E07B6C1800E8
:40258000FFF7DAFC031E08D0BB6BFC6B5E4900225B185441BB63FC6307E0BB6BFC6B5B4900225B185441BB63FC637B6C01337B647A6C7B6B9A42E1D37B6A1800FFF754FD22
:4025C00003003B637A6B3B6B11001800FFF7A2FE03003B643B6CBB610023FB614C4A0023B869F96900F028FE03000C0019002200BB6BFC6B5B185441BB63FC637B6A180061
:40260000FFF718FD03003B6100237B61404A00233869796900F010FE03000C00190022003C4B012464425B185441B96BFA6B5B185441BB63FC633B6A1800FFF7D1FC03008E
:402640003B643B6A1800FFF755FD031E17D03B6A1800FFF7DFFC0300FB62FB6A002B06D03B6C0B2B03D83B6C0C333B6407E0FB6A002B04D13B6C0C2B01D100233B643B6CB8
:40268000BB600023FB60E12212010023B868F96800F0D2FD03000C0019002200BB6BFC6B5B185441BB63FC633B6A1800FFF77EFC03003B6000237B603C22002338687968E1
:4026C00000F0BAFD03000C0019002200BB6BFC6B5B185441BB63FC633B6A1800FFF74EFC03001D0000231E00BB6BFC6B5B197441BB63FC63BB6BFC6B18002100BD4613B0BA
:40270000F0BDC046B20700000085E2018033E1018051010080AEFEFFF0B5A1B002AF7865BA64FB6400233B679C4BBB669C4B7B6619E07B6EBB600023FB60BB6CFC6CB96872
:40274000FA685B1A9441BB64FC64BB6E0133BB66BB6E1800FFF7F0FB031E02D0914B7B6601E08F4B7B667B6E1D0000231E00FB6CB34205D3FB6CB342DBD1BB6CAB42D8D201
:402780000123FB66BA6EFB6E1100180000F010F90200854B53437B6618E07B6E3B6000237B60BB6CFC6C39687A685B1A9441BB64FC64FB6E0133FB66BA6EFB6E110018008B
:4027C00000F0F6F80200784B53437B667B6E3B6400237B64FB6C7A6C934207D3FB6C7A6C9342DAD1BB6C3A6C9342D6D2B86CF96C6D4A002300F000FD03000C003B663A6E7A
:40280000694B53437B667B6EBB630023FB63FB6CFA6B93420CD3FB6CFA6B934203D1BB6CBA6B934204D37B6E3B6200237B6203E0002300243B627C62BB6CFC6C396A7A6AB7
:402840005B1A9441BB64FC643B6E01333B66B86CF96CE1221201002300F0CEFC03000C007B677B6FE122120153437B669023FB181B68002B1DD0FB6C002B06D1FB6C002BD1
:402880000ED1BB6C494A93420AD901233B677B6F0C2B02D97B6F0C3B00E07B6F7B6708E000233B677B6F002B01D07B6F00E00C237B677B6E3B6300237B63FB6C7A6B934211
:4028C0000CD3FB6C7A6B934203D1BB6C3A6B934204D37B6EBB610023FB6103E000230024BB61FC61BB6CFC6CB969FA695B1A9441BB64FC64B86CF96C3C22002300F07CFC16
:4029000003000C00FB65FA6D13001B019B1A9B007B667B6EBB620023FB62FB6CFA6A93420CD3FB6CFA6A934203D1BB6CBA6A934204D37B6E3B6100237B6103E00023002443
:402940003B617C61BB6CFC6C39697A695B1A9441BB64FC64BA6E396EFB6E1800FFF72AFC02007B6D5A60BB6CFC6D7A6F396F90203818006800932300FFF7CCFB02007B6D0B
:402980001A60BA6EF96E3B6E1800FFF77FFC02007B6D9A60C046BD461FB0F0BDB20700008033E1010085E20180510100C1A8000080B584B000AF786039607B68013B0A4A86
:4029C000D35CFB607B68022B08D13B681800FFF7B3FA031E02D0FB680133FB60FB681800BD4604B080BDC046CC3C000080B584B000AF0200FB1D1A700F4B1B68DAB20F234D
:402A0000FB1810218A431A70FB1D1B781B01DBB210221340D9B20F23FB180F22BA1812780A431A70044B0F22BA1812781A60C046BD4604B080BDC0460008044080B584B0E3
:402A400000AF0200FB1D1A700F4B1B68DAB20F23FB1820218A431A70FB1D1B785B01DBB220221340D9B20F23FB180F22BA1812780A431A70044B0F22BA1812781A60C04604
:402A8000BD4604B080BDC0460008044080B584B000AF0200FB1D1A700F4B1B68DAB20F23FB1840218A431A70FB1D1B789B01DBB240221340D9B20F23FB180F22BA181278C8
:402AC0000A431A70044B0F22BA1812781A60C046BD4604B080BDC0460008044080B584B000AF0200FB1D1A700D4B1B68DAB20F23FB187F210A401A70FB1D1B78DB01D9B26F
:402B00000F23FB180F22BA1812780A431A70044B0F22BA1812781A60C046BD4604B080BD0008044080B584B000AF0200FB1D1A700E4B1B68DAB20F23FB1801218A431A706E
:402B4000FB1D1B7801221340D9B20F23FB180F22BA1812780A431A70044B0F22BA1812781A60C046BD4604B080BDC0460008044080B584B000AF0200FB1D1A700F4B1B68C5
:402B8000DAB20F23FB1802218A431A70FB1D1B78DB18DBB202221340D9B20F23FB180F22BA1812780A431A70044B0F22BA1812781A60C046BD4604B080BDC0460008044052
:402BC00080B584B000AF0200FB1D1A700F4B1B68DAB20F23FB1804218A431A70FB1D1B789B00DBB204221340D9B20F23FB180F22BA1812780A431A70044B0F22BA18127893
:402C00001A60C046BD4604B080BDC0460008044080B584B000AF0200FB1D1A700F4B1B68DAB20F23FB1808218A431A70FB1D1B78DB00DBB208221340D9B20F23FB180F2253
:402C4000BA1812780A431A70044B0F22BA1812781A60C046BD4604B080BDC0460008044080B584B000AF0200FB1D1A700F4B1B68DAB20F23FB1804218A431A70FB1D1B78EE
:402C80009B00DBB204221340D9B20F23FB180F22BA1812780A431A70044B0F22BA1812781A60C046BD4604B080BDC0460001044080B584B000AF0200FB1D1A700F4B1B680B
:402CC000DAB20F23FB1808218A431A70FB1D1B78DB00DBB208221340D9B20F23FB180F22BA1812780A431A70044B0F22BA1812781A60C046BD4604B080BDC0460001044024
:402D000080B584B000AF0200FB1D1A700F4B1B68DAB20F23FB1840218A431A70FB1D1B789B01DBB240221340D9B20F23FB180F22BA1812780A431A70044B0F22BA181278D8
:402D40001A60C046BD4604B080BDC0460005044080B584B000AF0200FB1D1A700F4B1B68DAB20F23FB1820218A431A70FB1D1B785B01DBB220221340D9B20F23FB180F2264
:402D8000BA1812780A431A70044B0F22BA1812781A60C046BD4604B080BDC0460005044080B584B000AF0200FB1D1A700E4B1B68DAB20F23FB1801218A431A70FB1D1B78B4
:402DC00001221340D9B20F23FB180F22BA1812780A431A70044B0F22BA1812781A60C046BD4604B080BDC0460003044080B584B000AF0200FB1D1A700F4B1B68DAB20F2335
:402E0000FB1802218A431A70FB1D1B78DB18DBB202221340D9B20F23FB180F22BA1812780A431A70044B0F22BA1812781A60C046BD4604B080BDC0460003044080B584B029
:402E400000AF0200FB1D1A700E4B1B68DAB20F23FB1801218A431A70FB1D1B7801221340D9B20F23FB180F22BA1812780A431A70044B0F22BA1812781A60C046BD4604B071
:402E800080BDC0460001044080B584B000AF0200FB1D1A700F4B1B68DAB20F23FB1802218A431A70FB1D1B78DB18DBB202221340D9B20F23FB180F22BA1812780A431A70D0
:402EC000044B0F22BA1812781A60C046BD4604B080BDC0460001044080B500AF044B1B6880221340DB09DBB21800BD4680BDC0460400044090B583B000AF01235B42180075
:402F000000F05EF801235B42180000F071F8FC1D00F0A3F8030023700A4A0A4B1B78DBB210210B43DBB21370FB1D1B78180000F098F800F079F8002000F028F8C046BD46AA
:402F400003B090BD95000F4080B500AF0549054B1B78DBB2802252421343DBB20B70C046BD4680BD73000F4080B500AF064B1B78002B04D1FFF7BEFF034B01221A70FFF7C3
:402F8000E3FFC046BD4680BD6C02002080B582B000AF0200FB1D1A70034AFB1D1B781370C046BD4602B080BD85000F4080B500AF024B1B78DBB21800BD4680BD65000F40FD
:402FC00080B582B000AF7860034B7A681A60C046BD4602B080BDC04688200F4080B500AF024B1B681800BD4680BDC04608210F4080B582B000AF7860034B7A681A60C0461C
:40300000BD4602B080BDC04608200F4080B500AF034B1B78034B1B681800BD4680BDC04602000F4008210F4080B500AF01E0FFF7D5FFFFF7BBFF03001A0008231340F6D1C3
:40304000C046BD4680BDC0460230800803D00138FDD1C046C046C0467047EFF3108072B6704780F31088704790B585B000AF78600F23FC18FFF7F1FF030023707B68102BB3
:4030800006D8164B154A126803218A431A601AE07B68202B08D8114B104A126803218A4301210A431A600EE07B68302B08D80B4B0A4A126803218A4302210A431A6002E08E
:4030C0000020FEF73FFC0F23FB181B781800FFF7C8FFC046BD4605B090BDC04630001040002243088B4274D303098B425FD3030A8B4244D3030B8B4228D3030C8B420DD333
:40310000FF22090212BA030C8B4202D31212090265D0030B8B4219D300E0090AC30B8B4201D3CB03C01A5241830B8B4201D38B03C01A5241430B8B4201D34B03C01A52414A
:40314000030B8B4201D30B03C01A5241C30A8B4201D3CB02C01A5241830A8B4201D38B02C01A5241430A8B4201D34B02C01A5241030A8B4201D30B02C01A5241CDD2C3091A
:403180008B4201D3CB01C01A524183098B4201D38B01C01A524143098B4201D34B01C01A524103098B4201D30B01C01A5241C3088B4201D3CB00C01A524183088B4201D373
:4031C0008B00C01A524143088B4201D34B00C01A5241411A00D20146524110467047FFE701B5002000F006F802BDC0460029F7D076E770477047C046002B11D1002A0FD1D8
:40320000002900D1002802D00021C943081C07B4024802A14018029003BDC046D9FFFFFF03B4684601B5029800F032F8019B9E4602B00CBC7047C046F0B54F464646C0B45B
:403240001604360C9946330005042C0C070C150C63437E436F4365431C0CAD1964199C46A64203D980235B02984647446346250CEF191D044B464A4343432D0C24046419AB
:403280009918C91920000CBC90469946F0BDC046F0B54D46564644465F46F0B4924683B004000D0099468B422FD82CD04946504600F0AEF829000600200000F0A9F8331AD1
:4032C0009846203B9B4600D574E053465A4693401F005346424693401E00AF4229D826D05B46A41BBD41002B00DA79E0002200230092019301235A46934001930123424668
:403300009340009319E08242D0D900220023009201930C9B002B01D01C605D600098019903B03CBC90469946A246AB46F0BDA342D6D900220023009201934346002BE8D0F7
:40334000FB0772081A4346467B080EE0AB4201D1A2420CD8A41A9D41012024196D410021013E24184D41002E06D0AB42EED9013E24196D41002EF8D15B4600980199001959
:403380006941002B22DB2B005A46D3402A004446E2401C005B461500002B2CDB26009E40330026004746BE403200801A994100900191AEE7424620239B1A5246DA40414685
:4033C00013004A468A4017001F4382E7424620239B1A2A0046469A402300F3401343D5E74246202300219B1A0022009101920122DA40019282E74246202326009B1ADE4022
:403400002F00B446974066463B003343C9E7C04610B5002903D100F007F8203002E0081C00F002F810BDC0461C2101231B04984201D3000C10391B0A984201D3000A083914
:403440001B09984201D30009043902A2105C40187047C04604030202010101010000000000000000014B18687047C046E80100200E4B70B500251E000D4CE41AA410A542BB
:4034800004D0AB00F35898470135F8E700F026FC084B00251E00084CE41AA410A54204D0AB00F35898470135F8E770BDE83C0000E83C0000E83C0000F03C0000002310B54E
:4034C0009A4203D0CC5CC4540133F9E710BD03008218934202D019700133FAE77047000000000000ACFDFF7F01000000E2040000300500007E050000CC0500001A060000AC
:403500006806000000300F40000200360F40000200400F40000200430F40000100450F40800000460F40000200320F40EC3B0000800080320F406C3B0000800000340F4073
:40354000EC3A0000800080340F406C3A0000800070000F404C3A0000200008600F40403A00000C0080450F40C0390000800000440F4040390000800080440F40C0380000B6
:40358000800000350F4040380000800080350F40C0370000800000330F4040370000800080330F40C0360000800000420F4040360000800080420F40C03500008000000096
:4035C000000000000000000000000000000000000000000000000000000000200000000000000000000000000000002000000000000000000000000000000000000000008B
:40360000000000000000000000000000000000000000000080000000000000000000000000000000000000000000800000000000000000000000000000000000000000008A
:40364000000000000000000000000000000000000000000000000000000000000000000000000000000000000000000000000000000000000000000000000000000000004A
:4036800000000000000000000000000000000000000000000000000000000020000000000000000000000000000000000000000000000000000000000000000000000000EA
:4036C00000000000000000000000000000000000000010000000000000000000000000000000000000000000000000000000000000000000000010000000000000000000AA
:40370000000000000000000000000000000020004200180000000000000000000000000000000000000000000000000000000000000000000000000000000000000000000F
:4037400000000000000000000000000000000000000000000000000000000000000000000000000000000080000000000000000000000000000000000000000000001000B9
:403780000000200000002000000000400000004000000000000000000000000000000000000000000000000000000000000000000000004000000000000000000000000009
:4037C00000000000000000000000000000000000000000400000000000000000000020000000000000000000000000800000000000000000000000000000000000000000E9
:4038000000001000200000000000000000000000420018000000D000000000000000000000000000000000000000000000000000000000000000000000000000000000002E
:403840000000000000000000000000000000004000000000000020000000000000008000000000000000000000000000000000000000000000000000000000000000000068
:40388000000020000000200000000040000400410000000000002000000000000004800100000000000000000000000000000000000000000000000000000000000000009E
:4038C00000000000000000000000000000000000000000000000000000000000000000000000000000000000000000000000000000000000000000000000000000000000C8
:403900000000010000000000000000000000000000000000000000000000000000000000000000000000000000000000000000000000000000000000000000000000000086
:403940000000000000000000000000000000000100000000000000000000000000000000000000000000000000000000000000000000000000000000000000000000000046
:403980000000000000000000000000000000000000000000000000000000000000000000000000000000000000000000000000000000000000000000000000000000000007
:4039C00000000000000000000000000000000000000000000000000000000000000000000000000000000000000000000000000000000000000000010000000000000000C6
:403A0000000000000000000000000000000000000000000000000000000000000000000000000000000000000000000000000800000000000000000000000000000000007E
:403A40000000000000000000010100010000000000000000000000000000000000000000000D00000000000000000000000000000000000000000000000000000000010035
:403A800000000000000000000000000000000000000001000000000000000000010000000000000000000000000001005300000000EC20000BFFFFFF0083030118000000FD
:403AC000010000000400040400990001400040004040800080008000800080000000000000000000000000000000000000000000000000000000000000000000000000009F
:403B00000000000000000000000000000000000000000000000000000000000000000000000000000000000000000000530000000000000000FFFFFF008303011800000096
:403B400000000000000004000009000140004000404080008000800080008000000000000000000000000000000000000000000000000000000000000000000000000000B7
:403B80000000000000000000000000000000000000000000000000000000000000000000000000000000000000000000530000000000000000FFFFFF008303011800800096
:403BC00000000000000004040099000140004000404080008000800080008000000000000000000000000000000000000000000000000000000000010000000000000000A2
:403C00000000000000000000000000000000000000000000000000000000000000010000000000000000000000000000530000000000000000FFFFFF00000001180000001A
:403C40000000000000040400000900014000400040408000800080008000800000000000000000000000000000000000030405060708090A0B0C0E0F1011121314151617AE
:403C800018191B1C1D1E1F2021222325262728292A2B2E2F3031323334350000EEDBC9B9AA9B8E82766B60564D443B332C241D17100A040000001F003B005A00780097007D
:403CC000B500D400F300110130014E011F1C1F1E1F1E1F1F1E1F1E1F43000000F8B5C046F8BC08BC9E4670473503000081120000F8B5C046F8BC08BC9E4670470D0300009F
:403D0000103D0000C800002028010000C80000000000000000000000000000000000000000000000000000000000000000000000010000000000000000000000010000005B
:403D4000000000000000000000000000010000000100000000000000010000000000000000000000000000000100000000000000010000000000000001000000010000003C
:403D80000000000000000000010000000100000001000000010000000000000000000000000000000100000000000000000000000100000000366E01C05D00001800000023
:403DC0000000E02E01000000F0000000040404000000000000000000000000000000000000000000000000000000000000000000D83C0000000000000000000000000000A4
:403E000000000000000000000000000000000000000000000000000000000000000000000000000000000000000000000000000088010020000000000000000000000000D9
:403E40000000000000000000000000000000000000000000000000000000000000000000000000000000000000000000000000000000000000000000000000000000000042
:403E80000000000000000000000000000000000000000000000000000000000000000000000000000000000000000000000000000000000000000000000000000000000002
:403EC00000000000000000000000000000000000000000000000000000000000000000000000000000000000000000000000000000000000000000000000000000000000C2
:403F00000000000000000000000000000000000000000000000000000000000000000000000000000000000000000000000000000000000000000000000000000000000081
:020000040003F7
:0200000490303A
:02000000337952
:0200000490402A
:4000000000000000000000000000000000000000000000000000000000000000000000000000000000000000000000000000000000000000000000000000000000000000C0
:400040000000000000000000000000000000000000000000000000000000000000000000000000000000000000000000000000000000000000000000000000000000000080
:0200000490501A
:0C0000000002101311A000011026451989
:0200000490600A
:0100000001FE
:00000001FF